{
  "address": "0xD15eEDE1854228DdD1D4fD77073cC9fdA91dD899",
  "abi": [
    {
      "inputs": [
        {
          "internalType": "string",
          "name": "_buildingName",
          "type": "string"
        },
        {
          "internalType": "uint256",
          "name": "_totalApartments",
          "type": "uint256"
        },
        {
          "internalType": "address[]",
          "name": "_initialOwners",
          "type": "address[]"
        },
        {
          "internalType": "address",
          "name": "_treasury",
          "type": "address"
        }
      ],
      "stateMutability": "nonpayable",
      "type": "constructor"
    },
    {
      "anonymous": false,
      "inputs": [
        {
          "indexed": true,
          "internalType": "address",
          "name": "owner",
          "type": "address"
        },
        {
          "indexed": false,
          "internalType": "uint256",
          "name": "tokenId",
          "type": "uint256"
        }
      ],
      "name": "OwnerAdded",
      "type": "event"
    },
    {
      "anonymous": false,
      "inputs": [
        {
          "indexed": true,
          "internalType": "address",
          "name": "owner",
          "type": "address"
        },
        {
          "indexed": false,
          "internalType": "uint256",
          "name": "tokenId",
          "type": "uint256"
        }
      ],
      "name": "OwnerRemoved",
      "type": "event"
    },
    {
      "anonymous": false,
      "inputs": [
        {
          "indexed": true,
          "internalType": "uint256",
          "name": "proposalId",
          "type": "uint256"
        },
        {
          "indexed": false,
          "internalType": "address",
          "name": "voteContract",
          "type": "address"
        }
      ],
      "name": "ProposalCreated",
      "type": "event"
    },
    {
      "anonymous": false,
      "inputs": [
        {
          "indexed": false,
          "internalType": "uint256",
          "name": "start",
          "type": "uint256"
        },
        {
          "indexed": false,
          "internalType": "uint256",
          "name": "end",
          "type": "uint256"
        },
        {
          "indexed": false,
          "internalType": "uint256",
          "name": "duration",
          "type": "uint256"
        }
      ],
      "name": "ProposalTiming",
      "type": "event"
    },
    {
      "inputs": [],
      "name": "VOTING_DELAY",
      "outputs": [
        {
          "internalType": "uint256",
          "name": "",
          "type": "uint256"
        }
      ],
      "stateMutability": "view",
      "type": "function"
    },
    {
      "inputs": [],
      "name": "VOTING_PERIOD",
      "outputs": [
        {
          "internalType": "uint256",
          "name": "",
          "type": "uint256"
        }
      ],
      "stateMutability": "view",
      "type": "function"
    },
    {
      "inputs": [
        {
          "internalType": "address",
          "name": "_owner",
          "type": "address"
        },
        {
          "internalType": "uint256",
          "name": "_tokenId",
          "type": "uint256"
        }
      ],
      "name": "addOwner",
      "outputs": [],
      "stateMutability": "nonpayable",
      "type": "function"
    },
    {
      "inputs": [],
      "name": "admin",
      "outputs": [
        {
          "internalType": "address",
          "name": "",
          "type": "address"
        }
      ],
      "stateMutability": "view",
      "type": "function"
    },
    {
      "inputs": [],
      "name": "buildingInfo",
      "outputs": [
        {
          "internalType": "string",
          "name": "buildingName",
          "type": "string"
        },
        {
          "internalType": "address",
          "name": "treasury",
          "type": "address"
        },
        {
          "internalType": "uint256",
          "name": "totalApartments",
          "type": "uint256"
        }
      ],
      "stateMutability": "view",
      "type": "function"
    },
    {
      "inputs": [
        {
          "internalType": "string",
          "name": "_title",
          "type": "string"
        },
        {
          "internalType": "string",
          "name": "_description",
          "type": "string"
        },
        {
          "internalType": "enum BuildingDAO.ProposalType",
          "name": "_type",
          "type": "uint8"
        },
        {
          "internalType": "bytes",
          "name": "",
          "type": "bytes"
        }
      ],
      "name": "createProposal",
      "outputs": [
        {
          "internalType": "uint256",
          "name": "",
          "type": "uint256"
        }
      ],
      "stateMutability": "nonpayable",
      "type": "function"
    },
    {
      "inputs": [
        {
          "internalType": "address",
          "name": "_to",
          "type": "address"
        }
      ],
      "name": "delegate",
      "outputs": [],
      "stateMutability": "nonpayable",
      "type": "function"
    },
    {
      "inputs": [],
      "name": "getActiveProposals",
      "outputs": [
        {
          "internalType": "address[]",
          "name": "",
          "type": "address[]"
        }
      ],
      "stateMutability": "view",
      "type": "function"
    },
    {
      "inputs": [
        {
          "internalType": "address",
          "name": "_owner",
          "type": "address"
        }
      ],
      "name": "getOwnerTokens",
      "outputs": [
        {
          "internalType": "uint256",
          "name": "",
          "type": "uint256"
        }
      ],
      "stateMutability": "view",
      "type": "function"
    },
    {
      "inputs": [],
      "name": "getProposalCount",
      "outputs": [
        {
          "internalType": "uint256",
          "name": "",
          "type": "uint256"
        }
      ],
      "stateMutability": "view",
      "type": "function"
    },
    {
      "inputs": [
        {
          "internalType": "uint256",
          "name": "_proposalId",
          "type": "uint256"
        }
      ],
      "name": "getProposalDetails",
      "outputs": [
        {
          "internalType": "address",
          "name": "voteContract",
          "type": "address"
        },
        {
          "internalType": "string",
          "name": "title",
          "type": "string"
        },
        {
          "internalType": "string",
          "name": "description",
          "type": "string"
        },
        {
          "internalType": "uint256",
          "name": "startTime",
          "type": "uint256"
        },
        {
          "internalType": "uint256",
          "name": "endTime",
          "type": "uint256"
        },
        {
          "internalType": "uint256",
          "name": "yesVotes",
          "type": "uint256"
        },
        {
          "internalType": "uint256",
          "name": "noVotes",
          "type": "uint256"
        },
        {
          "internalType": "bool",
          "name": "executed",
          "type": "bool"
        }
      ],
      "stateMutability": "view",
      "type": "function"
    },
    {
      "inputs": [
        {
          "internalType": "uint256",
          "name": "_proposalId",
          "type": "uint256"
        }
      ],
      "name": "getVoteContract",
      "outputs": [
        {
          "internalType": "address",
          "name": "",
          "type": "address"
        }
      ],
      "stateMutability": "view",
      "type": "function"
    },
    {
      "inputs": [
        {
          "internalType": "address",
          "name": "_owner",
          "type": "address"
        }
      ],
      "name": "getVotingPower",
      "outputs": [
        {
          "internalType": "uint256",
          "name": "",
          "type": "uint256"
        }
      ],
      "stateMutability": "view",
      "type": "function"
    },
    {
      "inputs": [
        {
          "internalType": "address",
          "name": "",
          "type": "address"
        }
      ],
      "name": "owners",
      "outputs": [
        {
          "internalType": "bool",
          "name": "isActive",
          "type": "bool"
        },
        {
          "internalType": "address",
          "name": "delegateTo",
          "type": "address"
        }
      ],
      "stateMutability": "view",
      "type": "function"
    },
    {
      "inputs": [],
      "name": "proposalCount",
      "outputs": [
        {
          "internalType": "uint256",
          "name": "",
          "type": "uint256"
        }
      ],
      "stateMutability": "view",
      "type": "function"
    },
    {
      "inputs": [
        {
          "internalType": "uint256",
          "name": "",
          "type": "uint256"
        }
      ],
      "name": "proposalVotes",
      "outputs": [
        {
          "internalType": "address",
          "name": "",
          "type": "address"
        }
      ],
      "stateMutability": "view",
      "type": "function"
    },
    {
      "inputs": [
        {
          "internalType": "address",
          "name": "_owner",
          "type": "address"
        }
      ],
      "name": "removeOwner",
      "outputs": [],
      "stateMutability": "nonpayable",
      "type": "function"
    },
    {
      "inputs": [
        {
          "internalType": "bool",
          "name": "inFavor",
          "type": "bool"
        },
        {
          "internalType": "address",
          "name": "_proposalAddress",
          "type": "address"
        }
      ],
      "name": "sendVote",
      "outputs": [],
      "stateMutability": "nonpayable",
      "type": "function"
    },
    {
      "inputs": [],
      "name": "voteToken",
      "outputs": [
        {
          "internalType": "contract VoteToken",
          "name": "",
          "type": "address"
        }
      ],
      "stateMutability": "view",
      "type": "function"
    }
  ],
  "transactionHash": "0xc8244c18544c4f3a621ba55921f14845fb0bf66b9f9168768a64d446636cfb4d",
  "args": [
    "Edificio Test",
    50,
    [
      "0xdbB3Dbbff646c1F21A6c6e3C1a195021033dad6F",
      "0x70997970C51812dc3A010C7d01b50e0d17dc79C8",
      "0x3C44CdDdB6a900fa2b585dd299e03d12FA4293BC",
      "0x0AD49e5E66B949424b25572FC99d94d8bf35f575",
      "0x90F79bf6EB2c4f870365E785982E1f101E93b906"
    ],
    "0xdbB3Dbbff646c1F21A6c6e3C1a195021033dad6F"
  ],
  "numDeployments": 1,
  "solcInputHash": "1ee09be8afdd6367dc418472ec3c9a56",
  "bytecode": "0x60806040523480156200001157600080fd5b5060405162004973380380620049738339810160408190526200003491620003b1565b600380546001600160a01b0319163317905560006200005485826200053a565b506002839055600180546001600160a01b0319166001600160a01b0383161790556040516200008390620002ac565b604051809103906000f080158015620000a0573d6000803e3d6000fd5b50600480546001600160a01b0319166001600160a01b039290921691909117905560005b8251811015620002a15760006001600160a01b0316838281518110620000ee57620000ee62000606565b60200260200101516001600160a01b031603620001465760405162461bcd60e51b8152602060048201526012602482015271446972656363696f6e20696e76616c69646160701b604482015260640160405180910390fd5b60016005600085848151811062000161576200016162000606565b6020908102919091018101516001600160a01b03908116835290820192909252604001600020805460ff19169215159290921790915560045484519116906340c10f1990859084908110620001ba57620001ba62000606565b6020026020010151836001620001d191906200061c565b6040516001600160e01b031960e085901b1681526001600160a01b0390921660048301526024820152604401600060405180830381600087803b1580156200021857600080fd5b505af11580156200022d573d6000803e3d6000fd5b5050505082818151811062000246576200024662000606565b60200260200101516001600160a01b03167f567d314b1f4bef0cf41b5eea6a621ebe9b67dfafe183c591176a3efce5ecc0df8260016200028791906200061c565b60405190815260200160405180910390a2600101620000c4565b505050505062000644565b6117a380620031d083390190565b634e487b7160e01b600052604160045260246000fd5b604051601f8201601f191681016001600160401b0381118282101715620002fb57620002fb620002ba565b604052919050565b80516001600160a01b03811681146200031b57600080fd5b919050565b600082601f8301126200033257600080fd5b815160206001600160401b03821115620003505762000350620002ba565b8160051b62000361828201620002d0565b92835284810182019282810190878511156200037c57600080fd5b83870192505b84831015620003a657620003968362000303565b8252918301919083019062000382565b979650505050505050565b60008060008060808587031215620003c857600080fd5b84516001600160401b0380821115620003e057600080fd5b818701915087601f830112620003f557600080fd5b8151818111156200040a576200040a620002ba565b602062000420601f8301601f19168201620002d0565b8281528a828487010111156200043557600080fd5b60005b838110156200045557858101830151828201840152820162000438565b506000928101820192909252880151604089015191975095509150808211156200047e57600080fd5b506200048d8782880162000320565b9250506200049e6060860162000303565b905092959194509250565b600181811c90821680620004be57607f821691505b602082108103620004df57634e487b7160e01b600052602260045260246000fd5b50919050565b601f82111562000535576000816000526020600020601f850160051c81016020861015620005105750805b601f850160051c820191505b8181101562000531578281556001016200051c565b5050505b505050565b81516001600160401b03811115620005565762000556620002ba565b6200056e81620005678454620004a9565b84620004e5565b602080601f831160018114620005a657600084156200058d5750858301515b600019600386901b1c1916600185901b17855562000531565b600085815260208120601f198616915b82811015620005d757888601518255948401946001909101908401620005b6565b5085821015620005f65787850151600019600388901b60f8161c191681555b5050505050600190811b01905550565b634e487b7160e01b600052603260045260246000fd5b808201808211156200063e57634e487b7160e01b600052601160045260246000fd5b92915050565b612b7c80620006546000396000f3fe60806040523480156200001157600080fd5b5060043610620001395760003560e01c806360f827bf11620000bb578063d6159fe5116200007a578063d6159fe51462000312578063d63d4af0146200031d578063da35c6641462000334578063f851a440146200033e578063fec4cb98146200035257600080fd5b806360f827bf1462000295578063755da8b314620002bb578063b1610d7e14620002e7578063bb4d443614620002f2578063c08cc02d146200030957600080fd5b80633cc38f5c11620001085780633cc38f5c146200020b578063544ffc9c14620002225780635584c4f9146200024e5780635b34581414620002675780635c19a95c146200027e57600080fd5b8063022914a7146200013e578063160d66ae1462000198578063173825d914620001c55780633b4d01a714620001de575b600080fd5b620001746200014f366004620015c6565b60056020526000908152604090205460ff81169061010090046001600160a01b031682565b6040805192151583526001600160a01b039091166020830152015b60405180910390f35b600454620001ac906001600160a01b031681565b6040516001600160a01b0390911681526020016200018f565b620001dc620001d6366004620015c6565b6200036d565b005b620001f5620001ef366004620015eb565b6200055e565b6040516200018f98979695949392919062001659565b620001dc6200021c366004620016c4565b620008bc565b620001ac62000233366004620015eb565b6006602052600090815260409020546001600160a01b031681565b6200025862000a25565b6040516200018f9190620016f1565b620001dc6200027836600462001752565b62000bd6565b620001dc6200028f366004620015c6565b62000c89565b620002ac620002a63660046200186b565b62000dd3565b6040519081526020016200018f565b620001ac620002cc366004620015eb565b6000908152600660205260409020546001600160a01b031690565b620002ac62093a8081565b620002ac62000303366004620015c6565b62001308565b600754620002ac565b620002ac6201518081565b620002ac6200032e366004620015c6565b6200146e565b620002ac60075481565b600354620001ac906001600160a01b031681565b6200035c620014eb565b6040516200018f939291906200192c565b6003546001600160a01b03163314620003ba5760405162461bcd60e51b815260206004820152600a60248201526929b7b6379030b236b4b760b11b60448201526064015b60405180910390fd5b6001600160a01b03811660009081526005602052604090205460ff16620004185760405162461bcd60e51b81526020600482015260116024820152704e6f2065732070726f706965746172696f60781b6044820152606401620003b1565b60048054604051632f745c5960e01b81526001600160a01b03848116938201939093526000602482018190529290911690632f745c5990604401602060405180830381865afa15801562000470573d6000803e3d6000fd5b505050506040513d601f19601f820116820180604052508101906200049691906200195c565b60048054604051630852cd8d60e31b81529293506001600160a01b0316916342966c6891620004cb9185910190815260200190565b600060405180830381600087803b158015620004e657600080fd5b505af1158015620004fb573d6000803e3d6000fd5b505050506001600160a01b03821660008181526005602090815260409182902080546001600160a81b031916905590518381527f769fbc2ec8c9a4bc66b4767cd66ac7ca0ca967982b7c375411e03d66bbfb64c291015b60405180910390a25050565b6000818152600660205260408120546060908190839081908190819081906001600160a01b031680620005ce5760405162461bcd60e51b8152602060048201526017602482015276141c9bdc1bdcd85b08191bd95cc81b9bdd08195e1a5cdd604a1b6044820152606401620003b1565b600081905081816001600160a01b0316634a79d50c6040518163ffffffff1660e01b8152600401600060405180830381865afa15801562000613573d6000803e3d6000fd5b505050506040513d6000823e601f3d908101601f191682016040526200063d919081019062001976565b826001600160a01b0316637284e4166040518163ffffffff1660e01b8152600401600060405180830381865afa1580156200067c573d6000803e3d6000fd5b505050506040513d6000823e601f3d908101601f19168201604052620006a6919081019062001976565b836001600160a01b03166378e979256040518163ffffffff1660e01b8152600401602060405180830381865afa158015620006e5573d6000803e3d6000fd5b505050506040513d601f19601f820116820180604052508101906200070b91906200195c565b846001600160a01b0316633197cbb66040518163ffffffff1660e01b8152600401602060405180830381865afa1580156200074a573d6000803e3d6000fd5b505050506040513d601f19601f820116820180604052508101906200077091906200195c565b856001600160a01b031663fb286c656040518163ffffffff1660e01b8152600401602060405180830381865afa158015620007af573d6000803e3d6000fd5b505050506040513d601f19601f82011682018060405250810190620007d591906200195c565b866001600160a01b031663b5b47f426040518163ffffffff1660e01b8152600401602060405180830381865afa15801562000814573d6000803e3d6000fd5b505050506040513d601f19601f820116820180604052508101906200083a91906200195c565b876001600160a01b03166331a38c896040518163ffffffff1660e01b8152600401602060405180830381865afa15801562000879573d6000803e3d6000fd5b505050506040513d601f19601f820116820180604052508101906200089f919062001a02565b995099509950995099509950995099505050919395975091939597565b6003546001600160a01b03163314620009055760405162461bcd60e51b815260206004820152600a60248201526929b7b6379030b236b4b760b11b6044820152606401620003b1565b6001600160a01b03821660009081526005602052604090205460ff1615620009645760405162461bcd60e51b815260206004820152601160248201527059612065732070726f706965746172696f60781b6044820152606401620003b1565b6001600160a01b0382811660008181526005602052604090819020805460ff191660011790556004805491516340c10f1960e01b81529081019290925260248201849052909116906340c10f1990604401600060405180830381600087803b158015620009d057600080fd5b505af1158015620009e5573d6000803e3d6000fd5b50505050816001600160a01b03167f567d314b1f4bef0cf41b5eea6a621ebe9b67dfafe183c591176a3efce5ecc0df826040516200055291815260200190565b6060600060075467ffffffffffffffff81111562000a475762000a476200178c565b60405190808252806020026020018201604052801562000a71578160200160208202803683370190505b5090506000805b60075481101562000bce576000818152600660205260409020546001600160a01b0316801562000bc4576000819050806001600160a01b03166331a38c896040518163ffffffff1660e01b8152600401602060405180830381865afa15801562000ae6573d6000803e3d6000fd5b505050506040513d601f19601f8201168201806040525081019062000b0c919062001a02565b15801562000b7e5750806001600160a01b0316633197cbb66040518163ffffffff1660e01b8152600401602060405180830381865afa15801562000b54573d6000803e3d6000fd5b505050506040513d601f19601f8201168201806040525081019062000b7a91906200195c565b4211155b1562000bc2578185858151811062000b9a5762000b9a62001a22565b6001600160a01b03909216602092830291909101909101528362000bbe8162001a4e565b9450505b505b5060010162000a78565b508152919050565b6001600160a01b03811662000c285760405162461bcd60e51b8152602060048201526017602482015276141c9bdc1bdcd85b08191bd95cc81b9bdd08195e1a5cdd604a1b6044820152606401620003b1565b604051630973eb9360e31b815282151560048201526001600160a01b03821690634b9f5c9890602401600060405180830381600087803b15801562000c6c57600080fd5b505af115801562000c81573d6000803e3d6000fd5b505050505050565b3360009081526005602052604090205460ff1662000cde5760405162461bcd60e51b8152602060048201526011602482015270536f6c6f2070726f706965746172696f7360781b6044820152606401620003b1565b336001600160a01b0382160362000d2d5760405162461bcd60e51b815260206004820152601260248201527127379030baba3796b232b632b3b0b1b4b7b760711b6044820152606401620003b1565b6001600160a01b03811660009081526005602052604090205460ff168062000d5c57506001600160a01b038116155b62000d9e5760405162461bcd60e51b815260206004820152601160248201527044656c656761646f20696e76616c69646f60781b6044820152606401620003b1565b33600090815260056020526040902080546001600160a01b0390921661010002610100600160a81b0319909216919091179055565b3360009081526005602052604081205460ff1662000e285760405162461bcd60e51b8152602060048201526011602482015270536f6c6f2070726f706965746172696f7360781b6044820152606401620003b1565b600085511162000e735760405162461bcd60e51b81526020600482015260156024820152745469746c652063616e6e6f7420626520656d70747960581b6044820152606401620003b1565b600084511162000ec65760405162461bcd60e51b815260206004820152601b60248201527f4465736372697074696f6e2063616e6e6f7420626520656d70747900000000006044820152606401620003b1565b600480546040516370a0823160e01b815233928101929092526000916001600160a01b03909116906370a0823190602401602060405180830381865afa15801562000f15573d6000803e3d6000fd5b505050506040513d601f19601f8201168201806040525081019062000f3b91906200195c565b1162000f7c5760405162461bcd60e51b815260206004820152600f60248201526e139bc81d1bdad95b9cc81bdddb9959608a1b6044820152606401620003b1565b42600062000f8e62093a808362001a6a565b604080518481526020810183905262093a808183015290519192507fefc183e6550d8c2dc8a6373cbfbc16aea2198107b6e3d4bc068798b26d7fc060919081900360600190a18082106200101d5760405162461bcd60e51b8152602060048201526015602482015274125b9d985b1a59081d9bdd1a5b99c81c195c9a5bd9605a1b6044820152606401620003b1565b4281116200106e5760405162461bcd60e51b815260206004820152601a60248201527f456e642074696d65206d75737420626520696e206675747572650000000000006044820152606401620003b1565b6000808087600281111562001087576200108762001a80565b03620010b857600254606490620010a090601962001a96565b620010ac919062001ab0565b91506032905062001189565b6001876002811115620010cf57620010cf62001a80565b036200110057600254606490620010e890603262001a96565b620010f4919062001ab0565b9150603c905062001189565b600287600281111562001117576200111762001a80565b0362001148576002546064906200113090604b62001a96565b6200113c919062001ab0565b9150604b905062001189565b60405162461bcd60e51b8152602060048201526015602482015274496e76616c69642070726f706f73616c207479706560581b6044820152606401620003b1565b8888858585858c3330604051620011a0906200159b565b620011b49998979695949392919062001ad3565b604051809103906000f08015620011c85760015b6200127857620011d762001b64565b806308c379a003620012365750620011ee62001b81565b80620011fb575062001238565b806040516020016200120e919062001c11565b60408051601f198184030181529082905262461bcd60e51b8252620003b19160040162001c51565b505b60405162461bcd60e51b8152602060048201526014602482015273159bdd194818dc99585d1a5bdb8819985a5b195960621b6044820152606401620003b1565b60078054600091826200128b8362001a4e565b9091555060008181526006602090815260409182902080546001600160a01b0319166001600160a01b038716908117909155915191825291925082917fcd423cc1203c0af96b9b3d68d73b3064a69de2d14450bb7181c5e5df2132b358910160405180910390a2955062001300945050505050565b949350505050565b600480546040516370a0823160e01b81526001600160a01b0384811693820193909352600092839216906370a0823190602401602060405180830381865afa15801562001359573d6000803e3d6000fd5b505050506040513d601f19601f820116820180604052508101906200137f91906200195c565b9050335b6001600160a01b0381161562001467576001600160a01b03818116600090815260056020526040902054818616610100909104909116036200144157600480546040516370a0823160e01b81526001600160a01b03848116938201939093529116906370a0823190602401602060405180830381865afa1580156200140c573d6000803e3d6000fd5b505050506040513d601f19601f820116820180604052508101906200143291906200195c565b6200143e908362001a6a565b91505b6001600160a01b0390811660009081526005602052604090205461010090041662001383565b5092915050565b600480546040516370a0823160e01b81526001600160a01b0384811693820193909352600092909116906370a0823190602401602060405180830381865afa158015620014bf573d6000803e3d6000fd5b505050506040513d601f19601f82011682018060405250810190620014e591906200195c565b92915050565b600080548190620014fc9062001c66565b80601f01602080910402602001604051908101604052809291908181526020018280546200152a9062001c66565b80156200157b5780601f106200154f576101008083540402835291602001916200157b565b820191906000526020600020905b8154815290600101906020018083116200155d57829003601f168201915b50505050600183015460029093015491926001600160a01b031691905083565b610ea48062001ca383390190565b80356001600160a01b0381168114620015c157600080fd5b919050565b600060208284031215620015d957600080fd5b620015e482620015a9565b9392505050565b600060208284031215620015fe57600080fd5b5035919050565b60005b838110156200162257818101518382015260200162001608565b50506000910152565b600081518084526200164581602086016020860162001605565b601f01601f19169290920160200192915050565b6001600160a01b038916815261010060208201819052600090620016808382018b6200162b565b9050828103604084015262001696818a6200162b565b60608401989098525050608081019490945260a084019290925260c0830152151560e0909101529392505050565b60008060408385031215620016d857600080fd5b620016e383620015a9565b946020939093013593505050565b6020808252825182820181905260009190848201906040850190845b81811015620017345783516001600160a01b0316835292840192918401916001016200170d565b50909695505050505050565b80151581146200174f57600080fd5b50565b600080604083850312156200176657600080fd5b8235620017738162001740565b91506200178360208401620015a9565b90509250929050565b634e487b7160e01b600052604160045260246000fd5b601f8201601f1916810167ffffffffffffffff81118282101715620017cb57620017cb6200178c565b6040525050565b600067ffffffffffffffff821115620017ef57620017ef6200178c565b50601f01601f191660200190565b60006200180a83620017d2565b604051620018198282620017a2565b8092508481528585850111156200182f57600080fd5b8484602083013760006020868301015250509392505050565b600082601f8301126200185a57600080fd5b620015e483833560208501620017fd565b600080600080608085870312156200188257600080fd5b843567ffffffffffffffff808211156200189b57600080fd5b620018a98883890162001848565b95506020870135915080821115620018c057600080fd5b620018ce8883890162001848565b94506040870135915060038210620018e557600080fd5b90925060608601359080821115620018fc57600080fd5b508501601f810187136200190f57600080fd5b6200192087823560208401620017fd565b91505092959194509250565b6060815260006200194160608301866200162b565b6001600160a01b039490941660208301525060400152919050565b6000602082840312156200196f57600080fd5b5051919050565b6000602082840312156200198957600080fd5b815167ffffffffffffffff811115620019a157600080fd5b8201601f81018413620019b357600080fd5b8051620019c081620017d2565b604051620019cf8282620017a2565b828152866020848601011115620019e557600080fd5b620019f883602083016020870162001605565b9695505050505050565b60006020828403121562001a1557600080fd5b8151620015e48162001740565b634e487b7160e01b600052603260045260246000fd5b634e487b7160e01b600052601160045260246000fd5b60006001820162001a635762001a6362001a38565b5060010190565b80820180821115620014e557620014e562001a38565b634e487b7160e01b600052602160045260246000fd5b8082028115828204841417620014e557620014e562001a38565b60008262001ace57634e487b7160e01b600052601260045260246000fd5b500490565b600061012080835262001ae98184018d6200162b565b9050828103602084015262001aff818c6200162b565b9150508860408301528760608301528660808301528560a08301526003851062001b3957634e487b7160e01b600052602160045260246000fd5b60c08201949094526001600160a01b0392831660e08201529116610100909101529695505050505050565b600060033d111562001b7e5760046000803e5060005160e01c5b90565b600060443d101562001b905790565b6040516003193d81016004833e81513d67ffffffffffffffff816024840111818411171562001bc157505050505090565b828501915081518181111562001bda5750505050505090565b843d870101602082850101111562001bf55750505050505090565b62001c0660208286010187620017a2565b509095945050505050565b7502b37ba329031b932b0ba34b7b7103330b4b632b21d160551b81526000825162001c4481601685016020870162001605565b9190910160160192915050565b602081526000620015e460208301846200162b565b600181811c9082168062001c7b57607f821691505b60208210810362001c9c57634e487b7160e01b600052602260045260246000fd5b5091905056fe60806040523480156200001157600080fd5b5060405162000ea438038062000ea48339810160408190526200003491620001b2565b6001620000428a8262000311565b50600262000051898262000311565b5060038790556004869055600585905560068490556000805484919060ff60a01b1916600160a01b8360028111156200008e576200008e620003dd565b0217905550600980546001600160a01b039384166001600160a01b0319918216179091556000805492909316911617905550620003f395505050505050565b634e487b7160e01b600052604160045260246000fd5b600082601f830112620000f557600080fd5b81516001600160401b0380821115620001125762000112620000cd565b604051601f8301601f19908116603f011681019082821181831017156200013d576200013d620000cd565b81604052838152602092508660208588010111156200015b57600080fd5b600091505b838210156200017f578582018301518183018401529082019062000160565b6000602085830101528094505050505092915050565b80516001600160a01b0381168114620001ad57600080fd5b919050565b60008060008060008060008060006101208a8c031215620001d257600080fd5b89516001600160401b0380821115620001ea57600080fd5b620001f88d838e01620000e3565b9a5060208c01519150808211156200020f57600080fd5b506200021e8c828d01620000e3565b98505060408a0151965060608a0151955060808a0151945060a08a0151935060c08a0151600381106200025057600080fd5b92506200026060e08b0162000195565b9150620002716101008b0162000195565b90509295985092959850929598565b600181811c908216806200029557607f821691505b602082108103620002b657634e487b7160e01b600052602260045260246000fd5b50919050565b601f8211156200030c576000816000526020600020601f850160051c81016020861015620002e75750805b601f850160051c820191505b818110156200030857828155600101620002f3565b5050505b505050565b81516001600160401b038111156200032d576200032d620000cd565b62000345816200033e845462000280565b84620002bc565b602080601f8311600181146200037d5760008415620003645750858301515b600019600386901b1c1916600185901b17855562000308565b600085815260208120601f198616915b82811015620003ae578886015182559484019460019091019084016200038d565b5085821015620003cd5787850151600019600388901b60f8161c191681555b5050505050600190811b01905550565b634e487b7160e01b600052602160045260246000fd5b610aa180620004036000396000f3fe608060405234801561001057600080fd5b50600436106101165760003560e01c80634b9f5c98116100a257806378e979251161007157806378e979251461028357806382993ee51461028c578063b5b47f421461029f578063e3e6ca7d146102a8578063fb286c65146102d457600080fd5b80634b9f5c981461021d578063581c281c146102305780637284e4161461025a578063753ec1031461026257600080fd5b806331a38c89116100e957806331a38c891461019e57806332f1c324146101b2578063373058b8146101bb57806339456432146101c55780634a79d50c1461020857600080fd5b806302d05d3f1461011b57806309eef43e1461014b5780631703a0181461017e5780633197cbb614610195575b600080fd5b60095461012e906001600160a01b031681565b6040516001600160a01b0390911681526020015b60405180910390f35b61016e6101593660046108e7565b600a6020526000908152604090205460ff1681565b6040519015158152602001610142565b61018760055481565b604051908152602001610142565b61018760045481565b60095461016e90600160a01b900460ff1681565b61018760065481565b6101c36102dd565b005b6101cd61042e565b60408051978852602088019690965294860193909352606085019190915215156080840152151560a0830152151560c082015260e001610142565b6102106104a7565b6040516101429190610917565b6101c361022b366004610966565b610535565b6102386108ab565b6040805194855260208501939093529183015215156060820152608001610142565b6102106108da565b60005461027690600160a01b900460ff1681565b6040516101429190610988565b61018760035481565b60005461012e906001600160a01b031681565b61018760085481565b61016e6102b63660046108e7565b6001600160a01b03166000908152600a602052604090205460ff1690565b61018760075481565b60045442116103245760405162461bcd60e51b815260206004820152600e60248201526d566f74696e67206f6e676f696e6760901b60448201526064015b60405180910390fd5b600954600160a01b900460ff16156103715760405162461bcd60e51b815260206004820152601060248201526f105b1c9958591e48195e1958dd5d195960821b604482015260640161031b565b600060085460075461038391906109c6565b90506005548110156103cc5760405162461bcd60e51b8152602060048201526012602482015271145d5bdc9d5b481b9bdd081c995858da195960721b604482015260640161031b565b6006548160075460646103df91906109df565b6103e991906109f6565b1061042b576009805460ff60a01b1916600160a01b1790556040517fcf88c657fb0ecbed2a624b6b4c626e2ceda32ea9ed16ea81de6362a6d965bd0890600090a15b50565b60008060008060008060008060085460075461044a91906109c6565b9050600080821161045c576000610476565b81600754606461046c91906109df565b61047691906109f6565b600754600854600554600654600454939e929d50909b50995042919091119750928911159550871115935090915050565b600180546104b490610a18565b80601f01602080910402602001604051908101604052809291908181526020018280546104e090610a18565b801561052d5780601f106105025761010080835404028352916020019161052d565b820191906000526020600020905b81548152906001019060200180831161051057829003601f168201915b505050505081565b60408051818152600c818301526b43757272656e742074696d6560a01b606082015242602082015290517f3c5ad147104e56be34a9176a6692f7df8d2f4b29a5af06bc6b98970d329d65779181900360800190a17f3c5ad147104e56be34a9176a6692f7df8d2f4b29a5af06bc6b98970d329d65776003546040516105e191906040808252600a908201526953746172742074696d6560b01b6060820152602081019190915260800190565b60405180910390a17f3c5ad147104e56be34a9176a6692f7df8d2f4b29a5af06bc6b98970d329d657760045460405161063f9190604080825260089082015267456e642074696d6560c01b6060820152602081019190915260800190565b60405180910390a1600454600354106106925760405162461bcd60e51b8152602060048201526015602482015274125b9d985b1a59081d9bdd1a5b99c81c195c9a5bd9605a1b604482015260640161031b565b6003544210156106d95760405162461bcd60e51b8152602060048201526012602482015271159bdd1a5b99c81b9bdd081cdd185c9d195960721b604482015260640161031b565b60045442111561071a5760405162461bcd60e51b815260206004820152600c60248201526b159bdd1a5b99c8195b99195960a21b604482015260640161031b565b336000908152600a602052604090205460ff161561076a5760405162461bcd60e51b815260206004820152600d60248201526c105b1c9958591e481d9bdd1959609a1b604482015260640161031b565b60008054604051630d63d4af60e41b81523360048201526001600160a01b039091169063d63d4af090602401602060405180830381865afa1580156107b3573d6000803e3d6000fd5b505050506040513d601f19601f820116820180604052508101906107d79190610a52565b90506000811161081b5760405162461bcd60e51b815260206004820152600f60248201526e139bc81d1bdad95b9cc81bdddb9959608a1b604482015260640161031b565b336000908152600a60205260409020805460ff19166001179055811561085857806007600082825461084d91906109c6565b909155506108709050565b806008600082825461086a91906109c6565b90915550505b604051821515815233907f8eb81cb806dbb3d8a2f94981614331a55dfd90e06a42fdc362ca3ca96981d92f9060200160405180910390a25050565b6000806000804260035460045460035442101580156108cc57506004544211155b935093509350935090919293565b600280546104b490610a18565b6000602082840312156108f957600080fd5b81356001600160a01b038116811461091057600080fd5b9392505050565b60006020808352835180602085015260005b8181101561094557858101830151858201604001528201610929565b506000604082860101526040601f19601f8301168501019250505092915050565b60006020828403121561097857600080fd5b8135801515811461091057600080fd5b60208101600383106109aa57634e487b7160e01b600052602160045260246000fd5b91905290565b634e487b7160e01b600052601160045260246000fd5b808201808211156109d9576109d96109b0565b92915050565b80820281158282048414176109d9576109d96109b0565b600082610a1357634e487b7160e01b600052601260045260246000fd5b500490565b600181811c90821680610a2c57607f821691505b602082108103610a4c57634e487b7160e01b600052602260045260246000fd5b50919050565b600060208284031215610a6457600080fd5b505191905056fea26469706673582212204fc4ef83197ef74febde91cfc975efd651675015db488a87c4d30af2863b19d064736f6c63430008180033a2646970667358221220b0cec7fdb0558a3ead7265ac47c08da89babf3260b8d65cf3cbdb094534fb8f364736f6c6343000818003360806040523480156200001157600080fd5b5033604051806040016040528060098152602001682b37ba32aa37b5b2b760b91b8152506040518060400160405280600381526020016215951560ea1b8152508160009081620000629190620001ae565b506001620000718282620001ae565b5050506001600160a01b038116620000a357604051631e4fbdf760e01b81526000600482015260240160405180910390fd5b620000ae81620000b5565b506200027a565b600a80546001600160a01b038381166001600160a01b0319831681179093556040519116919082907f8be0079c531659141344cd1fd0a4f28419497f9722a3daafe3b4186f6b6457e090600090a35050565b634e487b7160e01b600052604160045260246000fd5b600181811c908216806200013257607f821691505b6020821081036200015357634e487b7160e01b600052602260045260246000fd5b50919050565b601f821115620001a9576000816000526020600020601f850160051c81016020861015620001845750805b601f850160051c820191505b81811015620001a55782815560010162000190565b5050505b505050565b81516001600160401b03811115620001ca57620001ca62000107565b620001e281620001db84546200011d565b8462000159565b602080601f8311600181146200021a5760008415620002015750858301515b600019600386901b1c1916600185901b178555620001a5565b600085815260208120601f198616915b828110156200024b578886015182559484019460019091019084016200022a565b50858210156200026a5787850151600019600388901b60f8161c191681555b5050505050600190811b01905550565b611519806200028a6000396000f3fe608060405234801561001057600080fd5b50600436106101375760003560e01c80634f6ccce7116100b857806395d89b411161007c57806395d89b411461027c578063a22cb46514610284578063b88d4fde14610297578063c87b56dd146102aa578063e985e9c5146102bd578063f2fde38b146102d057600080fd5b80634f6ccce71461022a5780636352211e1461023d57806370a0823114610250578063715018a6146102635780638da5cb5b1461026b57600080fd5b806323b872dd116100ff57806323b872dd146101cb5780632f745c59146101de57806340c10f19146101f157806342842e0e1461020457806342966c681461021757600080fd5b806301ffc9a71461013c57806306fdde0314610164578063081812fc14610179578063095ea7b3146101a457806318160ddd146101b9575b600080fd5b61014f61014a36600461113c565b6102e3565b60405190151581526020015b60405180910390f35b61016c61030e565b60405161015b91906111a9565b61018c6101873660046111bc565b6103a0565b6040516001600160a01b03909116815260200161015b565b6101b76101b23660046111f1565b6103c9565b005b6008545b60405190815260200161015b565b6101b76101d936600461121b565b6103d8565b6101bd6101ec3660046111f1565b610468565b6101b76101ff3660046111f1565b6104cd565b6101b761021236600461121b565b6104df565b6101b76102253660046111bc565b6104ff565b6101bd6102383660046111bc565b610513565b61018c61024b3660046111bc565b61056c565b6101bd61025e366004611257565b610577565b6101b76105bf565b600a546001600160a01b031661018c565b61016c6105d3565b6101b7610292366004611272565b6105e2565b6101b76102a53660046112c4565b6105ed565b61016c6102b83660046111bc565b610604565b61014f6102cb3660046113a0565b610679565b6101b76102de366004611257565b6106a7565b60006001600160e01b0319821663780e9d6360e01b14806103085750610308826106e2565b92915050565b60606000805461031d906113d3565b80601f0160208091040260200160405190810160405280929190818152602001828054610349906113d3565b80156103965780601f1061036b57610100808354040283529160200191610396565b820191906000526020600020905b81548152906001019060200180831161037957829003601f168201915b5050505050905090565b60006103ab82610732565b506000828152600460205260409020546001600160a01b0316610308565b6103d482823361076b565b5050565b6001600160a01b03821661040757604051633250574960e11b8152600060048201526024015b60405180910390fd5b6000610414838333610778565b9050836001600160a01b0316816001600160a01b031614610462576040516364283d7b60e01b81526001600160a01b03808616600483015260248201849052821660448201526064016103fe565b50505050565b600061047383610577565b82106104a45760405163295f44f760e21b81526001600160a01b0384166004820152602481018390526044016103fe565b506001600160a01b03919091166000908152600660209081526040808320938352929052205490565b6104d561084d565b6103d4828261087a565b6104fa838383604051806020016040528060008152506105ed565b505050565b61050761084d565b61051081610894565b50565b600061051e60085490565b82106105475760405163295f44f760e21b815260006004820152602481018390526044016103fe565b6008828154811061055a5761055a61140d565b90600052602060002001549050919050565b600061030882610732565b60006001600160a01b0382166105a3576040516322718ad960e21b8152600060048201526024016103fe565b506001600160a01b031660009081526003602052604090205490565b6105c761084d565b6105d160006108cf565b565b60606001805461031d906113d3565b6103d4338383610921565b6105f88484846103d8565b610462848484846109c0565b606061060f82610732565b50600061062760408051602081019091526000815290565b905060008151116106475760405180602001604052806000815250610672565b8061065184610ae9565b604051602001610662929190611423565b6040516020818303038152906040525b9392505050565b6001600160a01b03918216600090815260056020908152604080832093909416825291909152205460ff1690565b6106af61084d565b6001600160a01b0381166106d957604051631e4fbdf760e01b8152600060048201526024016103fe565b610510816108cf565b60006001600160e01b031982166380ac58cd60e01b148061071357506001600160e01b03198216635b5e139f60e01b145b8061030857506301ffc9a760e01b6001600160e01b0319831614610308565b6000818152600260205260408120546001600160a01b03168061030857604051637e27328960e01b8152600481018490526024016103fe565b6104fa8383836001610b7c565b600080610786858585610c82565b90506001600160a01b0381166107e3576107de84600880546000838152600960205260408120829055600182018355919091527ff3f7a9fe364faab93b216da50a3214154f22a0a2b415b23a84c8169e8b636ee30155565b610806565b846001600160a01b0316816001600160a01b031614610806576108068185610d7b565b6001600160a01b0385166108225761081d84610e0c565b610845565b846001600160a01b0316816001600160a01b031614610845576108458585610ebb565b949350505050565b600a546001600160a01b031633146105d15760405163118cdaa760e01b81523360048201526024016103fe565b6103d4828260405180602001604052806000815250610f0b565b60006108a36000836000610778565b90506001600160a01b0381166103d457604051637e27328960e01b8152600481018390526024016103fe565b600a80546001600160a01b038381166001600160a01b0319831681179093556040519116919082907f8be0079c531659141344cd1fd0a4f28419497f9722a3daafe3b4186f6b6457e090600090a35050565b6001600160a01b03821661095357604051630b61174360e31b81526001600160a01b03831660048201526024016103fe565b6001600160a01b03838116600081815260056020908152604080832094871680845294825291829020805460ff191686151590811790915591519182527f17307eab39ab6107e8899845ad3d59bd9653f200f220920489ca2b5937696c31910160405180910390a3505050565b6001600160a01b0383163b1561046257604051630a85bd0160e11b81526001600160a01b0384169063150b7a0290610a02903390889087908790600401611452565b6020604051808303816000875af1925050508015610a3d575060408051601f3d908101601f19168201909252610a3a9181019061148f565b60015b610aa6573d808015610a6b576040519150601f19603f3d011682016040523d82523d6000602084013e610a70565b606091505b508051600003610a9e57604051633250574960e11b81526001600160a01b03851660048201526024016103fe565b805181602001fd5b6001600160e01b03198116630a85bd0160e11b14610ae257604051633250574960e11b81526001600160a01b03851660048201526024016103fe565b5050505050565b60606000610af683610f22565b600101905060008167ffffffffffffffff811115610b1657610b166112ae565b6040519080825280601f01601f191660200182016040528015610b40576020820181803683370190505b5090508181016020015b600019016f181899199a1a9b1b9c1cb0b131b232b360811b600a86061a8153600a8504945084610b4a57509392505050565b8080610b9057506001600160a01b03821615155b15610c52576000610ba084610732565b90506001600160a01b03831615801590610bcc5750826001600160a01b0316816001600160a01b031614155b8015610bdf5750610bdd8184610679565b155b15610c085760405163a9fbf51f60e01b81526001600160a01b03841660048201526024016103fe565b8115610c505783856001600160a01b0316826001600160a01b03167f8c5be1e5ebec7d5bd14f71427d1e84f3dd0314c0f7b2291e5b200ac8c7c3b92560405160405180910390a45b505b5050600090815260046020526040902080546001600160a01b0319166001600160a01b0392909216919091179055565b6000828152600260205260408120546001600160a01b0390811690831615610caf57610caf818486610ffa565b6001600160a01b03811615610ced57610ccc600085600080610b7c565b6001600160a01b038116600090815260036020526040902080546000190190555b6001600160a01b03851615610d1c576001600160a01b0385166000908152600360205260409020805460010190555b60008481526002602052604080822080546001600160a01b0319166001600160a01b0389811691821790925591518793918516917fddf252ad1be2c89b69c2b068fc378daa952ba7f163c4a11628f55a4df523b3ef91a4949350505050565b6000610d8683610577565b600083815260076020526040902054909150808214610dd9576001600160a01b03841660009081526006602090815260408083208584528252808320548484528184208190558352600790915290208190555b5060009182526007602090815260408084208490556001600160a01b039094168352600681528383209183525290812055565b600854600090610e1e906001906114ac565b60008381526009602052604081205460088054939450909284908110610e4657610e4661140d565b906000526020600020015490508060088381548110610e6757610e6761140d565b6000918252602080832090910192909255828152600990915260408082208490558582528120556008805480610e9f57610e9f6114cd565b6001900381819060005260206000200160009055905550505050565b60006001610ec884610577565b610ed291906114ac565b6001600160a01b039093166000908152600660209081526040808320868452825280832085905593825260079052919091209190915550565b610f15838361105e565b6104fa60008484846109c0565b60008072184f03e93ff9f4daa797ed6e38ed64bf6a1f0160401b8310610f615772184f03e93ff9f4daa797ed6e38ed64bf6a1f0160401b830492506040015b6d04ee2d6d415b85acef81000000008310610f8d576d04ee2d6d415b85acef8100000000830492506020015b662386f26fc100008310610fab57662386f26fc10000830492506010015b6305f5e1008310610fc3576305f5e100830492506008015b6127108310610fd757612710830492506004015b60648310610fe9576064830492506002015b600a83106103085760010192915050565b6110058383836110c3565b6104fa576001600160a01b03831661103357604051637e27328960e01b8152600481018290526024016103fe565b60405163177e802f60e01b81526001600160a01b0383166004820152602481018290526044016103fe565b6001600160a01b03821661108857604051633250574960e11b8152600060048201526024016103fe565b600061109683836000610778565b90506001600160a01b038116156104fa576040516339e3563760e11b8152600060048201526024016103fe565b60006001600160a01b038316158015906108455750826001600160a01b0316846001600160a01b031614806110fd57506110fd8484610679565b806108455750506000908152600460205260409020546001600160a01b03908116911614919050565b6001600160e01b03198116811461051057600080fd5b60006020828403121561114e57600080fd5b813561067281611126565b60005b8381101561117457818101518382015260200161115c565b50506000910152565b60008151808452611195816020860160208601611159565b601f01601f19169290920160200192915050565b602081526000610672602083018461117d565b6000602082840312156111ce57600080fd5b5035919050565b80356001600160a01b03811681146111ec57600080fd5b919050565b6000806040838503121561120457600080fd5b61120d836111d5565b946020939093013593505050565b60008060006060848603121561123057600080fd5b611239846111d5565b9250611247602085016111d5565b9150604084013590509250925092565b60006020828403121561126957600080fd5b610672826111d5565b6000806040838503121561128557600080fd5b61128e836111d5565b9150602083013580151581146112a357600080fd5b809150509250929050565b634e487b7160e01b600052604160045260246000fd5b600080600080608085870312156112da57600080fd5b6112e3856111d5565b93506112f1602086016111d5565b925060408501359150606085013567ffffffffffffffff8082111561131557600080fd5b818701915087601f83011261132957600080fd5b81358181111561133b5761133b6112ae565b604051601f8201601f19908116603f01168101908382118183101715611363576113636112ae565b816040528281528a602084870101111561137c57600080fd5b82602086016020830137600060208483010152809550505050505092959194509250565b600080604083850312156113b357600080fd5b6113bc836111d5565b91506113ca602084016111d5565b90509250929050565b600181811c908216806113e757607f821691505b60208210810361140757634e487b7160e01b600052602260045260246000fd5b50919050565b634e487b7160e01b600052603260045260246000fd5b60008351611435818460208801611159565b835190830190611449818360208801611159565b01949350505050565b6001600160a01b03858116825284166020820152604081018390526080606082018190526000906114859083018461117d565b9695505050505050565b6000602082840312156114a157600080fd5b815161067281611126565b8181038181111561030857634e487b7160e01b600052601160045260246000fd5b634e487b7160e01b600052603160045260246000fdfea2646970667358221220efe5e68bb5923becbb7950c06aa70cf5d201b131f231153030c017bc933e719064736f6c63430008180033",
  "devdoc": {
    "kind": "dev",
    "methods": {},
    "version": 1
  },
  "userdoc": {
    "kind": "user",
    "methods": {},
    "version": 1
  },
  "storageLayout": {
    "storage": [
      {
        "astId": 3375,
        "contract": "contracts/BuildingDAO.sol:BuildingDAO",
        "label": "buildingInfo",
        "offset": 0,
        "slot": "0",
        "type": "t_struct(Building)3363_storage"
      },
      {
        "astId": 3377,
        "contract": "contracts/BuildingDAO.sol:BuildingDAO",
        "label": "admin",
        "offset": 0,
        "slot": "3",
        "type": "t_address"
      },
      {
        "astId": 3380,
        "contract": "contracts/BuildingDAO.sol:BuildingDAO",
        "label": "voteToken",
        "offset": 0,
        "slot": "4",
        "type": "t_contract(VoteToken)4537"
      },
      {
        "astId": 3385,
        "contract": "contracts/BuildingDAO.sol:BuildingDAO",
        "label": "owners",
        "offset": 0,
        "slot": "5",
        "type": "t_mapping(t_address,t_struct(Owner)3368_storage)"
      },
      {
        "astId": 3389,
        "contract": "contracts/BuildingDAO.sol:BuildingDAO",
        "label": "proposalVotes",
        "offset": 0,
        "slot": "6",
        "type": "t_mapping(t_uint256,t_address)"
      },
      {
        "astId": 3391,
        "contract": "contracts/BuildingDAO.sol:BuildingDAO",
        "label": "proposalCount",
        "offset": 0,
        "slot": "7",
        "type": "t_uint256"
      }
    ],
    "types": {
      "t_address": {
        "encoding": "inplace",
        "label": "address",
        "numberOfBytes": "20"
      },
      "t_bool": {
        "encoding": "inplace",
        "label": "bool",
        "numberOfBytes": "1"
      },
      "t_contract(VoteToken)4537": {
        "encoding": "inplace",
        "label": "contract VoteToken",
        "numberOfBytes": "20"
      },
      "t_mapping(t_address,t_struct(Owner)3368_storage)": {
        "encoding": "mapping",
        "key": "t_address",
        "label": "mapping(address => struct BuildingDAO.Owner)",
        "numberOfBytes": "32",
        "value": "t_struct(Owner)3368_storage"
      },
      "t_mapping(t_uint256,t_address)": {
        "encoding": "mapping",
        "key": "t_uint256",
        "label": "mapping(uint256 => address)",
        "numberOfBytes": "32",
        "value": "t_address"
      },
      "t_string_storage": {
        "encoding": "bytes",
        "label": "string",
        "numberOfBytes": "32"
      },
      "t_struct(Building)3363_storage": {
        "encoding": "inplace",
        "label": "struct BuildingDAO.Building",
        "members": [
          {
            "astId": 3358,
            "contract": "contracts/BuildingDAO.sol:BuildingDAO",
            "label": "buildingName",
            "offset": 0,
            "slot": "0",
            "type": "t_string_storage"
          },
          {
            "astId": 3360,
            "contract": "contracts/BuildingDAO.sol:BuildingDAO",
            "label": "treasury",
            "offset": 0,
            "slot": "1",
            "type": "t_address"
          },
          {
            "astId": 3362,
            "contract": "contracts/BuildingDAO.sol:BuildingDAO",
            "label": "totalApartments",
            "offset": 0,
            "slot": "2",
            "type": "t_uint256"
          }
        ],
        "numberOfBytes": "96"
      },
      "t_struct(Owner)3368_storage": {
        "encoding": "inplace",
        "label": "struct BuildingDAO.Owner",
        "members": [
          {
            "astId": 3365,
            "contract": "contracts/BuildingDAO.sol:BuildingDAO",
            "label": "isActive",
            "offset": 0,
            "slot": "0",
            "type": "t_bool"
          },
          {
            "astId": 3367,
            "contract": "contracts/BuildingDAO.sol:BuildingDAO",
            "label": "delegateTo",
            "offset": 1,
            "slot": "0",
            "type": "t_address"
          }
        ],
        "numberOfBytes": "32"
      },
      "t_uint256": {
        "encoding": "inplace",
        "label": "uint256",
        "numberOfBytes": "32"
      }
    }
  }
}