{
  "address": "0xF22B3E75587BCD0d52B3BF6eD537008ed5ccDaa8",
  "abi": [
    {
      "inputs": [
        {
          "internalType": "string",
          "name": "_title",
          "type": "string"
        },
        {
          "internalType": "string",
          "name": "_description",
          "type": "string"
        },
        {
          "internalType": "uint256",
          "name": "_startTime",
          "type": "uint256"
        },
        {
          "internalType": "uint256",
          "name": "_endTime",
          "type": "uint256"
        },
        {
          "internalType": "uint256",
          "name": "_quorum",
          "type": "uint256"
        },
        {
          "internalType": "uint256",
          "name": "_requiredMajority",
          "type": "uint256"
        },
        {
          "internalType": "enum BuildingDAO.ProposalType",
          "name": "_proposal",
          "type": "uint8"
        },
        {
          "internalType": "address",
          "name": "_creator",
          "type": "address"
        },
        {
          "internalType": "address",
          "name": "_parentDao",
          "type": "address"
        }
      ],
      "stateMutability": "nonpayable",
      "type": "constructor"
    },
    {
      "anonymous": false,
      "inputs": [
        {
          "indexed": false,
          "internalType": "string",
          "name": "message",
          "type": "string"
        },
        {
          "indexed": false,
          "internalType": "uint256",
          "name": "value",
          "type": "uint256"
        }
      ],
      "name": "Debug",
      "type": "event"
    },
    {
      "anonymous": false,
      "inputs": [],
      "name": "ProposalExecuted",
      "type": "event"
    },
    {
      "anonymous": false,
      "inputs": [
        {
          "indexed": true,
          "internalType": "address",
          "name": "voter",
          "type": "address"
        },
        {
          "indexed": false,
          "internalType": "bool",
          "name": "inFavor",
          "type": "bool"
        }
      ],
      "name": "Voted",
      "type": "event"
    },
    {
      "inputs": [],
      "name": "creator",
      "outputs": [
        {
          "internalType": "address",
          "name": "",
          "type": "address"
        }
      ],
      "stateMutability": "view",
      "type": "function"
    },
    {
      "inputs": [],
      "name": "description",
      "outputs": [
        {
          "internalType": "string",
          "name": "",
          "type": "string"
        }
      ],
      "stateMutability": "view",
      "type": "function"
    },
    {
      "inputs": [],
      "name": "endTime",
      "outputs": [
        {
          "internalType": "uint256",
          "name": "",
          "type": "uint256"
        }
      ],
      "stateMutability": "view",
      "type": "function"
    },
    {
      "inputs": [],
      "name": "executeProposal",
      "outputs": [],
      "stateMutability": "nonpayable",
      "type": "function"
    },
    {
      "inputs": [],
      "name": "executed",
      "outputs": [
        {
          "internalType": "bool",
          "name": "",
          "type": "bool"
        }
      ],
      "stateMutability": "view",
      "type": "function"
    },
    {
      "inputs": [],
      "name": "getVoteStatistics",
      "outputs": [
        {
          "internalType": "uint256",
          "name": "_yesVotes",
          "type": "uint256"
        },
        {
          "internalType": "uint256",
          "name": "_noVotes",
          "type": "uint256"
        },
        {
          "internalType": "uint256",
          "name": "_quorum",
          "type": "uint256"
        },
        {
          "internalType": "uint256",
          "name": "_requiredMajority",
          "type": "uint256"
        },
        {
          "internalType": "bool",
          "name": "_hasEnded",
          "type": "bool"
        },
        {
          "internalType": "bool",
          "name": "_quorumReached",
          "type": "bool"
        },
        {
          "internalType": "bool",
          "name": "_majorityReached",
          "type": "bool"
        }
      ],
      "stateMutability": "view",
      "type": "function"
    },
    {
      "inputs": [],
      "name": "getVotingStatus",
      "outputs": [
        {
          "internalType": "uint256",
          "name": "currentTime",
          "type": "uint256"
        },
        {
          "internalType": "uint256",
          "name": "votingStart",
          "type": "uint256"
        },
        {
          "internalType": "uint256",
          "name": "votingEnd",
          "type": "uint256"
        },
        {
          "internalType": "bool",
          "name": "isActive",
          "type": "bool"
        }
      ],
      "stateMutability": "view",
      "type": "function"
    },
    {
      "inputs": [
        {
          "internalType": "address",
          "name": "_voter",
          "type": "address"
        }
      ],
      "name": "hasAddressVoted",
      "outputs": [
        {
          "internalType": "bool",
          "name": "",
          "type": "bool"
        }
      ],
      "stateMutability": "view",
      "type": "function"
    },
    {
      "inputs": [
        {
          "internalType": "address",
          "name": "",
          "type": "address"
        }
      ],
      "name": "hasVoted",
      "outputs": [
        {
          "internalType": "bool",
          "name": "",
          "type": "bool"
        }
      ],
      "stateMutability": "view",
      "type": "function"
    },
    {
      "inputs": [],
      "name": "noVotes",
      "outputs": [
        {
          "internalType": "uint256",
          "name": "",
          "type": "uint256"
        }
      ],
      "stateMutability": "view",
      "type": "function"
    },
    {
      "inputs": [],
      "name": "parentDao",
      "outputs": [
        {
          "internalType": "address",
          "name": "",
          "type": "address"
        }
      ],
      "stateMutability": "view",
      "type": "function"
    },
    {
      "inputs": [],
      "name": "proposal",
      "outputs": [
        {
          "internalType": "enum BuildingDAO.ProposalType",
          "name": "",
          "type": "uint8"
        }
      ],
      "stateMutability": "view",
      "type": "function"
    },
    {
      "inputs": [],
      "name": "quorum",
      "outputs": [
        {
          "internalType": "uint256",
          "name": "",
          "type": "uint256"
        }
      ],
      "stateMutability": "view",
      "type": "function"
    },
    {
      "inputs": [],
      "name": "requiredMajority",
      "outputs": [
        {
          "internalType": "uint256",
          "name": "",
          "type": "uint256"
        }
      ],
      "stateMutability": "view",
      "type": "function"
    },
    {
      "inputs": [],
      "name": "startTime",
      "outputs": [
        {
          "internalType": "uint256",
          "name": "",
          "type": "uint256"
        }
      ],
      "stateMutability": "view",
      "type": "function"
    },
    {
      "inputs": [],
      "name": "title",
      "outputs": [
        {
          "internalType": "string",
          "name": "",
          "type": "string"
        }
      ],
      "stateMutability": "view",
      "type": "function"
    },
    {
      "inputs": [
        {
          "internalType": "bool",
          "name": "inFavor",
          "type": "bool"
        }
      ],
      "name": "vote",
      "outputs": [],
      "stateMutability": "nonpayable",
      "type": "function"
    },
    {
      "inputs": [],
      "name": "yesVotes",
      "outputs": [
        {
          "internalType": "uint256",
          "name": "",
          "type": "uint256"
        }
      ],
      "stateMutability": "view",
      "type": "function"
    }
  ],
  "transactionHash": "0x99112593c4199137b9119fa787ff591bb3680c05bd2e6b5be845548a8a71b090",
  "args": [
    "Test Proposal",
    "Test Description",
    1733718917,
    1733801717,
    25,
    51,
    0,
    "0xdbB3Dbbff646c1F21A6c6e3C1a195021033dad6F",
    "0xD15eEDE1854228DdD1D4fD77073cC9fdA91dD899"
  ],
  "numDeployments": 1,
  "solcInputHash": "1ee09be8afdd6367dc418472ec3c9a56",
  "bytecode": "0x60806040523480156200001157600080fd5b5060405162000ea438038062000ea48339810160408190526200003491620001b2565b6001620000428a8262000311565b50600262000051898262000311565b5060038790556004869055600585905560068490556000805484919060ff60a01b1916600160a01b8360028111156200008e576200008e620003dd565b0217905550600980546001600160a01b039384166001600160a01b0319918216179091556000805492909316911617905550620003f395505050505050565b634e487b7160e01b600052604160045260246000fd5b600082601f830112620000f557600080fd5b81516001600160401b0380821115620001125762000112620000cd565b604051601f8301601f19908116603f011681019082821181831017156200013d576200013d620000cd565b81604052838152602092508660208588010111156200015b57600080fd5b600091505b838210156200017f578582018301518183018401529082019062000160565b6000602085830101528094505050505092915050565b80516001600160a01b0381168114620001ad57600080fd5b919050565b60008060008060008060008060006101208a8c031215620001d257600080fd5b89516001600160401b0380821115620001ea57600080fd5b620001f88d838e01620000e3565b9a5060208c01519150808211156200020f57600080fd5b506200021e8c828d01620000e3565b98505060408a0151965060608a0151955060808a0151945060a08a0151935060c08a0151600381106200025057600080fd5b92506200026060e08b0162000195565b9150620002716101008b0162000195565b90509295985092959850929598565b600181811c908216806200029557607f821691505b602082108103620002b657634e487b7160e01b600052602260045260246000fd5b50919050565b601f8211156200030c576000816000526020600020601f850160051c81016020861015620002e75750805b601f850160051c820191505b818110156200030857828155600101620002f3565b5050505b505050565b81516001600160401b038111156200032d576200032d620000cd565b62000345816200033e845462000280565b84620002bc565b602080601f8311600181146200037d5760008415620003645750858301515b600019600386901b1c1916600185901b17855562000308565b600085815260208120601f198616915b82811015620003ae578886015182559484019460019091019084016200038d565b5085821015620003cd5787850151600019600388901b60f8161c191681555b5050505050600190811b01905550565b634e487b7160e01b600052602160045260246000fd5b610aa180620004036000396000f3fe608060405234801561001057600080fd5b50600436106101165760003560e01c80634b9f5c98116100a257806378e979251161007157806378e979251461028357806382993ee51461028c578063b5b47f421461029f578063e3e6ca7d146102a8578063fb286c65146102d457600080fd5b80634b9f5c981461021d578063581c281c146102305780637284e4161461025a578063753ec1031461026257600080fd5b806331a38c89116100e957806331a38c891461019e57806332f1c324146101b2578063373058b8146101bb57806339456432146101c55780634a79d50c1461020857600080fd5b806302d05d3f1461011b57806309eef43e1461014b5780631703a0181461017e5780633197cbb614610195575b600080fd5b60095461012e906001600160a01b031681565b6040516001600160a01b0390911681526020015b60405180910390f35b61016e6101593660046108e7565b600a6020526000908152604090205460ff1681565b6040519015158152602001610142565b61018760055481565b604051908152602001610142565b61018760045481565b60095461016e90600160a01b900460ff1681565b61018760065481565b6101c36102dd565b005b6101cd61042e565b60408051978852602088019690965294860193909352606085019190915215156080840152151560a0830152151560c082015260e001610142565b6102106104a7565b6040516101429190610917565b6101c361022b366004610966565b610535565b6102386108ab565b6040805194855260208501939093529183015215156060820152608001610142565b6102106108da565b60005461027690600160a01b900460ff1681565b6040516101429190610988565b61018760035481565b60005461012e906001600160a01b031681565b61018760085481565b61016e6102b63660046108e7565b6001600160a01b03166000908152600a602052604090205460ff1690565b61018760075481565b60045442116103245760405162461bcd60e51b815260206004820152600e60248201526d566f74696e67206f6e676f696e6760901b60448201526064015b60405180910390fd5b600954600160a01b900460ff16156103715760405162461bcd60e51b815260206004820152601060248201526f105b1c9958591e48195e1958dd5d195960821b604482015260640161031b565b600060085460075461038391906109c6565b90506005548110156103cc5760405162461bcd60e51b8152602060048201526012602482015271145d5bdc9d5b481b9bdd081c995858da195960721b604482015260640161031b565b6006548160075460646103df91906109df565b6103e991906109f6565b1061042b576009805460ff60a01b1916600160a01b1790556040517fcf88c657fb0ecbed2a624b6b4c626e2ceda32ea9ed16ea81de6362a6d965bd0890600090a15b50565b60008060008060008060008060085460075461044a91906109c6565b9050600080821161045c576000610476565b81600754606461046c91906109df565b61047691906109f6565b600754600854600554600654600454939e929d50909b50995042919091119750928911159550871115935090915050565b600180546104b490610a18565b80601f01602080910402602001604051908101604052809291908181526020018280546104e090610a18565b801561052d5780601f106105025761010080835404028352916020019161052d565b820191906000526020600020905b81548152906001019060200180831161051057829003601f168201915b505050505081565b60408051818152600c818301526b43757272656e742074696d6560a01b606082015242602082015290517f3c5ad147104e56be34a9176a6692f7df8d2f4b29a5af06bc6b98970d329d65779181900360800190a17f3c5ad147104e56be34a9176a6692f7df8d2f4b29a5af06bc6b98970d329d65776003546040516105e191906040808252600a908201526953746172742074696d6560b01b6060820152602081019190915260800190565b60405180910390a17f3c5ad147104e56be34a9176a6692f7df8d2f4b29a5af06bc6b98970d329d657760045460405161063f9190604080825260089082015267456e642074696d6560c01b6060820152602081019190915260800190565b60405180910390a1600454600354106106925760405162461bcd60e51b8152602060048201526015602482015274125b9d985b1a59081d9bdd1a5b99c81c195c9a5bd9605a1b604482015260640161031b565b6003544210156106d95760405162461bcd60e51b8152602060048201526012602482015271159bdd1a5b99c81b9bdd081cdd185c9d195960721b604482015260640161031b565b60045442111561071a5760405162461bcd60e51b815260206004820152600c60248201526b159bdd1a5b99c8195b99195960a21b604482015260640161031b565b336000908152600a602052604090205460ff161561076a5760405162461bcd60e51b815260206004820152600d60248201526c105b1c9958591e481d9bdd1959609a1b604482015260640161031b565b60008054604051630d63d4af60e41b81523360048201526001600160a01b039091169063d63d4af090602401602060405180830381865afa1580156107b3573d6000803e3d6000fd5b505050506040513d601f19601f820116820180604052508101906107d79190610a52565b90506000811161081b5760405162461bcd60e51b815260206004820152600f60248201526e139bc81d1bdad95b9cc81bdddb9959608a1b604482015260640161031b565b336000908152600a60205260409020805460ff19166001179055811561085857806007600082825461084d91906109c6565b909155506108709050565b806008600082825461086a91906109c6565b90915550505b604051821515815233907f8eb81cb806dbb3d8a2f94981614331a55dfd90e06a42fdc362ca3ca96981d92f9060200160405180910390a25050565b6000806000804260035460045460035442101580156108cc57506004544211155b935093509350935090919293565b600280546104b490610a18565b6000602082840312156108f957600080fd5b81356001600160a01b038116811461091057600080fd5b9392505050565b60006020808352835180602085015260005b8181101561094557858101830151858201604001528201610929565b506000604082860101526040601f19601f8301168501019250505092915050565b60006020828403121561097857600080fd5b8135801515811461091057600080fd5b60208101600383106109aa57634e487b7160e01b600052602160045260246000fd5b91905290565b634e487b7160e01b600052601160045260246000fd5b808201808211156109d9576109d96109b0565b92915050565b80820281158282048414176109d9576109d96109b0565b600082610a1357634e487b7160e01b600052601260045260246000fd5b500490565b600181811c90821680610a2c57607f821691505b602082108103610a4c57634e487b7160e01b600052602260045260246000fd5b50919050565b600060208284031215610a6457600080fd5b505191905056fea26469706673582212204fc4ef83197ef74febde91cfc975efd651675015db488a87c4d30af2863b19d064736f6c63430008180033",
  "devdoc": {
    "kind": "dev",
    "methods": {},
    "version": 1
  },
  "userdoc": {
    "kind": "user",
    "methods": {},
    "version": 1
  },
  "storageLayout": {
    "storage": [
      {
        "astId": 4150,
        "contract": "contracts/Vote.sol:Vote",
        "label": "parentDao",
        "offset": 0,
        "slot": "0",
        "type": "t_address"
      },
      {
        "astId": 4153,
        "contract": "contracts/Vote.sol:Vote",
        "label": "proposal",
        "offset": 20,
        "slot": "0",
        "type": "t_enum(ProposalType)3372"
      },
      {
        "astId": 4155,
        "contract": "contracts/Vote.sol:Vote",
        "label": "title",
        "offset": 0,
        "slot": "1",
        "type": "t_string_storage"
      },
      {
        "astId": 4157,
        "contract": "contracts/Vote.sol:Vote",
        "label": "description",
        "offset": 0,
        "slot": "2",
        "type": "t_string_storage"
      },
      {
        "astId": 4159,
        "contract": "contracts/Vote.sol:Vote",
        "label": "startTime",
        "offset": 0,
        "slot": "3",
        "type": "t_uint256"
      },
      {
        "astId": 4161,
        "contract": "contracts/Vote.sol:Vote",
        "label": "endTime",
        "offset": 0,
        "slot": "4",
        "type": "t_uint256"
      },
      {
        "astId": 4163,
        "contract": "contracts/Vote.sol:Vote",
        "label": "quorum",
        "offset": 0,
        "slot": "5",
        "type": "t_uint256"
      },
      {
        "astId": 4165,
        "contract": "contracts/Vote.sol:Vote",
        "label": "requiredMajority",
        "offset": 0,
        "slot": "6",
        "type": "t_uint256"
      },
      {
        "astId": 4167,
        "contract": "contracts/Vote.sol:Vote",
        "label": "yesVotes",
        "offset": 0,
        "slot": "7",
        "type": "t_uint256"
      },
      {
        "astId": 4169,
        "contract": "contracts/Vote.sol:Vote",
        "label": "noVotes",
        "offset": 0,
        "slot": "8",
        "type": "t_uint256"
      },
      {
        "astId": 4171,
        "contract": "contracts/Vote.sol:Vote",
        "label": "creator",
        "offset": 0,
        "slot": "9",
        "type": "t_address"
      },
      {
        "astId": 4173,
        "contract": "contracts/Vote.sol:Vote",
        "label": "executed",
        "offset": 20,
        "slot": "9",
        "type": "t_bool"
      },
      {
        "astId": 4177,
        "contract": "contracts/Vote.sol:Vote",
        "label": "hasVoted",
        "offset": 0,
        "slot": "10",
        "type": "t_mapping(t_address,t_bool)"
      }
    ],
    "types": {
      "t_address": {
        "encoding": "inplace",
        "label": "address",
        "numberOfBytes": "20"
      },
      "t_bool": {
        "encoding": "inplace",
        "label": "bool",
        "numberOfBytes": "1"
      },
      "t_enum(ProposalType)3372": {
        "encoding": "inplace",
        "label": "enum BuildingDAO.ProposalType",
        "numberOfBytes": "1"
      },
      "t_mapping(t_address,t_bool)": {
        "encoding": "mapping",
        "key": "t_address",
        "label": "mapping(address => bool)",
        "numberOfBytes": "32",
        "value": "t_bool"
      },
      "t_string_storage": {
        "encoding": "bytes",
        "label": "string",
        "numberOfBytes": "32"
      },
      "t_uint256": {
        "encoding": "inplace",
        "label": "uint256",
        "numberOfBytes": "32"
      }
    }
  }
}